{
  "address": "0x50F6141b99FD56e129F66fcc1A08611644069F6b",
  "abi": [
    {
      "inputs": [
        {
          "internalType": "address",
          "name": "_pool",
          "type": "address"
        },
        {
          "internalType": "address",
          "name": "_feed0",
          "type": "address"
        },
        {
          "internalType": "address",
          "name": "_feed1",
          "type": "address"
        }
      ],
      "stateMutability": "nonpayable",
      "type": "constructor"
    },
    {
      "inputs": [],
      "name": "decimals",
      "outputs": [
        {
          "internalType": "uint8",
          "name": "",
          "type": "uint8"
        }
      ],
      "stateMutability": "pure",
      "type": "function"
    },
    {
      "inputs": [],
      "name": "getPlatformId",
      "outputs": [
        {
          "internalType": "enum IExtendedAggregator.PlatformId",
          "name": "",
          "type": "uint8"
        }
      ],
      "stateMutability": "pure",
      "type": "function"
    },
    {
      "inputs": [],
      "name": "getSubTokens",
      "outputs": [
        {
          "internalType": "address[]",
          "name": "",
          "type": "address[]"
        }
      ],
      "stateMutability": "view",
      "type": "function"
    },
    {
      "inputs": [],
      "name": "getToken",
      "outputs": [
        {
          "internalType": "address",
          "name": "",
          "type": "address"
        }
      ],
      "stateMutability": "view",
      "type": "function"
    },
    {
      "inputs": [],
      "name": "getTokenType",
      "outputs": [
        {
          "internalType": "enum IExtendedAggregator.TokenType",
          "name": "",
          "type": "uint8"
        }
      ],
      "stateMutability": "pure",
      "type": "function"
    },
    {
      "inputs": [],
      "name": "latestAnswer",
      "outputs": [
        {
          "internalType": "int256",
          "name": "",
          "type": "int256"
        }
      ],
      "stateMutability": "view",
      "type": "function"
    },
    {
      "inputs": [],
      "name": "pool",
      "outputs": [
        {
          "internalType": "address",
          "name": "",
          "type": "address"
        }
      ],
      "stateMutability": "view",
      "type": "function"
    },
    {
      "inputs": [],
      "name": "priceFeed0",
      "outputs": [
        {
          "internalType": "address",
          "name": "",
          "type": "address"
        }
      ],
      "stateMutability": "view",
      "type": "function"
    },
    {
      "inputs": [],
      "name": "priceFeed1",
      "outputs": [
        {
          "internalType": "address",
          "name": "",
          "type": "address"
        }
      ],
      "stateMutability": "view",
      "type": "function"
    }
  ],
  "transactionHash": "0xf31c095ab84346dd2aff10e96fae727eb2825a2adfb80cffa670420973d349a4",
  "args": [
    "0xD2eeC91055F07fE24C9cCB25828ecfEFd4be0c41",
    "0x8fFfFfd4AfB6115b954Bd326cbe7B4BA576818f6",
    "0x3E7d1eAB13ad0104d2750B8863b489D65364e32D"
  ],
  "solcInputHash": "61c68f84e03dcb97df7c72ff4d8e37f5",
  "bytecode": "0x6101a06040523480156200001257600080fd5b5060405162000fbf38038062000fbf833981810160405260608110156200003857600080fd5b5080516020808301516040938401518451630dfe168160e01b815294519394919390926000926001600160a01b03871692630dfe168192600480840193919291829003018186803b1580156200008d57600080fd5b505afa158015620000a2573d6000803e3d6000fd5b505050506040513d6020811015620000b957600080fd5b50516040805163313ce56760e01b815290516001600160a01b039092169163313ce56791600480820192602092909190829003018186803b158015620000fe57600080fd5b505afa15801562000113573d6000803e3d6000fd5b505050506040513d60208110156200012a57600080fd5b505160ff16905060128111156200017b576040805162461bcd60e51b815260206004820152601060248201526f0e8ded6cadc605ac8cac65acee85a62760831b604482015290519081900360640190fd5b80600a0a6080818152505080601203600a0a60c081815250506000846001600160a01b031663d21220a76040518163ffffffff1660e01b815260040160206040518083038186803b158015620001d057600080fd5b505afa158015620001e5573d6000803e3d6000fd5b505050506040513d6020811015620001fc57600080fd5b50516040805163313ce56760e01b815290516001600160a01b039092169163313ce56791600480820192602092909190829003018186803b1580156200024157600080fd5b505afa15801562000256573d6000803e3d6000fd5b505050506040513d60208110156200026d57600080fd5b505160ff1690506012811115620002be576040805162461bcd60e51b815260206004820152601060248201526f0e8ded6cadc625ac8cac65acee85a62760831b604482015290519081900360640190fd5b80600a0a60a0818152505080601203600a0a60e081815250506000846001600160a01b031663313ce5676040518163ffffffff1660e01b815260040160206040518083038186803b1580156200031357600080fd5b505afa15801562000328573d6000803e3d6000fd5b505050506040513d60208110156200033f57600080fd5b505160ff169050601281111562000391576040805162461bcd60e51b81526020600482015260116024820152700dee4c2c6d8ca605ac8cac65acee85a627607b1b604482015290519081900360640190fd5b80601203600a0a61010081815250506000846001600160a01b031663313ce5676040518163ffffffff1660e01b815260040160206040518083038186803b158015620003dc57600080fd5b505afa158015620003f1573d6000803e3d6000fd5b505050506040513d60208110156200040857600080fd5b505160ff16905060128111156200045a576040805162461bcd60e51b81526020600482015260116024820152700dee4c2c6d8ca625ac8cac65acee85a627607b1b604482015290519081900360640190fd5b601203600a0a610120525050506001600160601b0319606093841b81166101405291831b82166101605290911b166101805260805160a05160c05160e05161010051610120516101405160601c6101605160601c6101805160601c610a9f62000520600039806106a852806106d952508061037b52806106ff5250806101a752806101cb528061021352806102c55280610457528061054f5250806107d65250806107fc5250806106695250806106365250806103fc5250806103cf5250610a9f6000f3fe608060405234801561001057600080fd5b50600436106100935760003560e01c8063385aee1b11610066578063385aee1b1461013a5780634b0ca9731461014257806350d25bcd1461016b578063ab0ca0e114610185578063fcab18191461018d57610093565b806316f0115b1461009857806321df0da7146100bc57806325f33d76146100c4578063313ce5671461011c575b600080fd5b6100a06101a5565b604080516001600160a01b039092168252519081900360200190f35b6100a06101c9565b6100cc6101ed565b60408051602080825283518183015283519192839290830191858101910280838360005b838110156101085781810151838201526020016100f0565b505050509050019250505060405180910390f35b610124610374565b6040805160ff9092168252519081900360200190f35b6100a0610379565b61014a61039d565b6040518082600481111561015a57fe5b815260200191505060405180910390f35b6101736103a2565b60408051918252519081900360200190f35b6100a06106a6565b6101956106ca565b6040518082600281111561015a57fe5b7f000000000000000000000000000000000000000000000000000000000000000081565b7f000000000000000000000000000000000000000000000000000000000000000090565b6040805160028082526060808301845292839291906020830190803683370190505090507f00000000000000000000000000000000000000000000000000000000000000006001600160a01b0316630dfe16816040518163ffffffff1660e01b815260040160206040518083038186803b15801561026a57600080fd5b505afa15801561027e573d6000803e3d6000fd5b505050506040513d602081101561029457600080fd5b5051815182906000906102a357fe5b60200260200101906001600160a01b031690816001600160a01b0316815250507f00000000000000000000000000000000000000000000000000000000000000006001600160a01b031663d21220a76040518163ffffffff1660e01b815260040160206040518083038186803b15801561031c57600080fd5b505afa158015610330573d6000803e3d6000fd5b505050506040513d602081101561034657600080fd5b505181518290600190811061035757fe5b6001600160a01b0390921660209283029190910190910152905090565b601290565b7f000000000000000000000000000000000000000000000000000000000000000081565b600490565b6000806103af60016106cf565b905060006103bd60006106cf565b9050600061045060306104376103f3857f0000000000000000000000000000000000000000000000000000000000000000610829565b61042a610420887f0000000000000000000000000000000000000000000000000000000000000000610829565b600160601b610829565b8161043157fe5b0461088a565b6001600160801b0316901b6001600160801b03166109d1565b90506000807f00000000000000000000000000000000000000000000000000000000000000006001600160a01b031663b670ed7d846040518263ffffffff1660e01b815260040180826001600160a01b03168152602001915050604080518083038186803b1580156104c157600080fd5b505afa1580156104d5573d6000803e3d6000fd5b505050506040513d60408110156104eb57600080fd5b5080516020909101519092509050811515806105075750600081115b61054b576040805162461bcd60e51b815260206004820152601060248201526f696e76616c69642d62616c616e63657360801b604482015290519081900360640190fd5b60007f00000000000000000000000000000000000000000000000000000000000000006001600160a01b03166318160ddd6040518163ffffffff1660e01b815260040160206040518083038186803b1580156105a657600080fd5b505afa1580156105ba573d6000803e3d6000fd5b505050506040513d60208110156105d057600080fd5b50519050633b9aca00811015610626576040805162461bcd60e51b81526020600482015260166024820152751d1bdd185b0b5cdd5c1c1b1e4b5d1bdbcb5cdb585b1b60521b604482015290519081900360640190fd5b60008161069261065f8961065a887f0000000000000000000000000000000000000000000000000000000000000000610829565b610829565b61068d8961065a887f0000000000000000000000000000000000000000000000000000000000000000610829565b610a22565b8161069957fe5b0497505050505050505090565b7f000000000000000000000000000000000000000000000000000000000000000081565b600290565b600080826106fd577f000000000000000000000000000000000000000000000000000000000000000061071f565b7f00000000000000000000000000000000000000000000000000000000000000005b6001600160a01b03166350d25bcd6040518163ffffffff1660e01b815260040160206040518083038186803b15801561075757600080fd5b505afa15801561076b573d6000803e3d6000fd5b505050506040513d602081101561078157600080fd5b50519050600081136107cb576040805162461bcd60e51b815260206004820152600e60248201526d6e656761746976652d707269636560901b604482015290519081900360640190fd5b61082081846107fa577f000000000000000000000000000000000000000000000000000000000000000061065a565b7f0000000000000000000000000000000000000000000000000000000000000000610829565b9150505b919050565b60008115806108445750508082028282828161084157fe5b04145b610884576040805162461bcd60e51b815260206004820152600c60248201526b6d756c2d6f766572666c6f7760a01b604482015290519081900360640190fd5b92915050565b60008161089957506000610824565b816001600160801b82106108b25760809190911c9060401b5b6801000000000000000082106108cd5760409190911c9060201b5b64010000000082106108e45760209190911c9060101b5b6201000082106108f95760109190911c9060081b5b610100821061090d5760089190911c9060041b5b601082106109205760049190911c9060021b5b6008821061092c5760011b5b600181858161093757fe5b048201901c9050600181858161094957fe5b048201901c9050600181858161095b57fe5b048201901c9050600181858161096d57fe5b048201901c9050600181858161097f57fe5b048201901c9050600181858161099157fe5b048201901c905060018185816109a357fe5b048201901c905060008185816109b557fe5b0490508082106109c557806109c7565b815b9350505050610824565b806001600160a01b0381168114610824576040805162461bcd60e51b815260206004820152601060248201526f75696e743136302d6f766572666c6f7760801b604482015290519081900360640190fd5b80820182811015610884576040805162461bcd60e51b815260206004820152600c60248201526b6164642d6f766572666c6f7760a01b604482015290519081900360640190fdfea26469706673582212207bc79256cf247d63ce1f8776b821905908ee9f2ad2ab1bd53bf9a10bc37d84a064736f6c634300060c0033",
  "devdoc": {
    "kind": "dev",
    "methods": {
      "decimals()": {
        "details": "Returns the decimals of latestAnswer()",
        "returns": {
          "_0": "uint8"
        }
      },
      "getPlatformId()": {
        "details": "Returns the platform id to categorize the price aggregator",
        "returns": {
          "_0": "uint256 1 = Uniswap, 2 = Balancer, 3 = G-UNI"
        }
      },
      "getSubTokens()": {
        "details": "Returns the number of tokens that composes the LP shares",
        "returns": {
          "_0": "address[] memory of token addresses"
        }
      },
      "getToken()": {
        "details": "Returns the LP shares token",
        "returns": {
          "_0": "address of the LP shares token"
        }
      },
      "getTokenType()": {
        "details": "Returns token type for categorization",
        "returns": {
          "_0": "uint256 1 = Simple (Native or plain ERC20s), 2 = Complex (LP Tokens, Staked tokens)"
        }
      },
      "latestAnswer()": {
        "details": "Returns the latest price",
        "returns": {
          "_0": "int256 price"
        }
      }
    },
    "version": 1
  },
  "userdoc": {
    "kind": "user",
    "methods": {},
    "version": 1
  },
  "storageLayout": {
    "storage": [],
    "types": null
  }
}